01#BPA#2021050038980000501676FUNDACAO GONCALVES E SAMPAIO  GA INF24301008000237(71) 3257-1456                          ED02.83
032445204202105  980016283818122512520210501001010305020013704305527499292F291710N1100290000010713967        BPATATIANE ANUNCIACAO VENTURA    1992050703    010                                4571000008122 DE AGOSTO                            511  CENTRO                        NAOTEM                                             
032445204202105  980016283818122512520210501001020301010048707000835341838F291710    0430000010213972        BPAFABIANA CERQUEIRA DOS SANTOS  1978031103    010                                45710000081UMBURANA                                37   GAMELEIRA                     7399402632                                         
032445204202105  980016283818122512520210501001030301010048700005133712205F291710    0880000010213971        BPANAIR GRIMA DOS SANTOS         1933043003    010                                45710000081DERNERVAL LANDIM                        59   APARECIDA                     7399859511                                         
032445204202105  980016283818122512520210501001040301010048704305527499292F291710    0290000010213962        BPATATIANE ANUNCIACAO VENTURA    1992050703    010                                4571000008122 DE AGOSTO                            511  CENTRO                        NAOTEM                                             
032445204202105  980016283818122512520210501001050301010048705006268283452F291710    0480000010213961        BPAALESSANDRA RODRIGUES EVANGELIS1972073099    010                                45710000081RUY BARBOSA                             432  COLONIA                       7398029984                                         
032445204202105  980016283818122512520210501001060301010048700007746509104F291710    0550000010213945        BPAMARIA APARECIDA TEIXEIRA SANTO1965060599    010                                4571000008126 DE ABRIL                             386  CENTRO                        NAOTEM                                             
032445204202105  980016283818122512520210501001070301010048704101197070571M291710    0000000010213955        BPAHEITOR DOS SANTOS DIAS        2020061399    010                                45710000081DOCE VIDA                               SN   APARECIDA                     NAOTEM                                             
032445204202105  980016283818122512520210501001080202020380704305527499292F291710    0290000010213962        BPATATIANE ANUNCIACAO VENTURA    1992050703    010                                4571000008122 DE AGOSTO                            511  CENTRO                        NAOTEM                                             
032445204202105  980016283818122512520210501001090301010072707000835341838F291710    0430000010213972        BPAFABIANA CERQUEIRA DOS SANTOS  1978031103    010                                45710000081UMBURANA                                37   GAMELEIRA                     7399402632                                         
032445204202105  980016283818122512520210501001100301010072700005133712205F291710    0880000010213971        BPANAIR GRIMA DOS SANTOS         1933043003    010                                45710000081DERNERVAL LANDIM                        59   APARECIDA                     7399859511                                         
032445204202105  980016283818122512520210501001110301010072704305527499292F291710    0290000010213962        BPATATIANE ANUNCIACAO VENTURA    1992050703    010                                4571000008122 DE AGOSTO                            511  CENTRO                        NAOTEM                                             
032445204202105  980016283818122512520210501001120301010072705006268283452F291710    0480000010213961        BPAALESSANDRA RODRIGUES EVANGELIS1972073099    010                                45710000081RUY BARBOSA                             432  COLONIA                       7398029984                                         
032445204202105  980016283818122512520210501001130301010072700007746509104F291710    0550000010213945        BPAMARIA APARECIDA TEIXEIRA SANTO1965060599    010                                4571000008126 DE ABRIL                             386  CENTRO                        NAOTEM                                             
032445204202105  980016283818122512520210501001140301010072704101197070571M291710    0000000010213955        BPAHEITOR DOS SANTOS DIAS        2020061399    010                                45710000081DOCE VIDA                               SN   APARECIDA                     NAOTEM                                             
032445204202105  980016283818122512520210501001150301060029707000835341838F291710    0430000010213972        BPAFABIANA CERQUEIRA DOS SANTOS  1978031103    010                                45710000081UMBURANA                                37   GAMELEIRA                     7399402632                                         
032445204202105  980016283818122512520210501001160301060029700005133712205F291710    0880000010213971        BPANAIR GRIMA DOS SANTOS         1933043003    010                                45710000081DERNERVAL LANDIM                        59   APARECIDA                     7399859511                                         
032445204202105  980016283818122512520210501001170301060029704305527499292F291710    0290000010213962        BPATATIANE ANUNCIACAO VENTURA    1992050703    010                                4571000008122 DE AGOSTO                            511  CENTRO                        NAOTEM                                             
032445204202105  980016283818122512520210501001180301060029705006268283452F291710    0480000010213961        BPAALESSANDRA RODRIGUES EVANGELIS1972073099    010                                45710000081RUY BARBOSA                             432  COLONIA                       7398029984                                         
032445204202105  980016283818122512520210501001190301060029700007746509104F291710    0550000010213945        BPAMARIA APARECIDA TEIXEIRA SANTO1965060599    010                                4571000008126 DE ABRIL                             386  CENTRO                        NAOTEM                                             
032445204202105  980016283818122512520210501001200301060029704101197070571M291710    0000000010213955        BPAHEITOR DOS SANTOS DIAS        2020061399    010                                45710000081DOCE VIDA                               SN   APARECIDA                     NAOTEM                                             
032445204202105  980016283818122512520210501001210301100012707000835341838F291710    0430000010213972        BPAFABIANA CERQUEIRA DOS SANTOS  1978031103    010                                45710000081UMBURANA                                37   GAMELEIRA                     7399402632                                         
032445204202105  980016283818122512520210501001220301100012700005133712205F291710    0880000010213971        BPANAIR GRIMA DOS SANTOS         1933043003    010                                45710000081DERNERVAL LANDIM                        59   APARECIDA                     7399859511                                         
032445204202105  980016283818122512520210501001230301100012704305527499292F291710    0290000010213962        BPATATIANE ANUNCIACAO VENTURA    1992050703    010                                4571000008122 DE AGOSTO                            511  CENTRO                        NAOTEM                                             
032445204202105  980016283818122512520210501001240301100012705006268283452F291710    0480000010213961        BPAALESSANDRA RODRIGUES EVANGELIS1972073099    010                                45710000081RUY BARBOSA                             432  COLONIA                       7398029984                                         
032445204202105  980016283818122512520210501001250301100012700007746509104F291710    0550000010213945        BPAMARIA APARECIDA TEIXEIRA SANTO1965060599    010                                4571000008126 DE ABRIL                             386  CENTRO                        NAOTEM                                             
032445204202105  980016283818122512520210501001260301100012704101197070571M291710    0000000010213955        BPAHEITOR DOS SANTOS DIAS        2020061399    010                                45710000081DOCE VIDA                               SN   APARECIDA                     NAOTEM                                             
032445204202105  980016283818122512520210501001270202020380700009809760609F291710    0300000010213954        BPATAIS DE ALMEIDA SANTOS        1991051199    010                                45710000081FAZ. RANCHO ALEGRE                      SN   ZONA RURAL                    7398496714                                         
032445204202105  980016283818122512520210501001280301010048700009809760609F291710    0300000010213954        BPATAIS DE ALMEIDA SANTOS        1991051199    010                                45710000081FAZ. RANCHO ALEGRE                      SN   ZONA RURAL                    7398496714                                         
032445204202105  980016283818122512520210501001290301010072700009809760609F291710    0300000010213954        BPATAIS DE ALMEIDA SANTOS        1991051199    010                                45710000081FAZ. RANCHO ALEGRE                      SN   ZONA RURAL                    7398496714                                         
032445204202105  980016283818122512520210501001300301060029700009809760609F291710    0300000010213954        BPATAIS DE ALMEIDA SANTOS        1991051199    010                                45710000081FAZ. RANCHO ALEGRE                      SN   ZONA RURAL                    7398496714                                         
032445204202105  980016283818122512520210501001310301100012700009809760609F291710    0300000010213954        BPATAIS DE ALMEIDA SANTOS        1991051199    010                                45710000081FAZ. RANCHO ALEGRE                      SN   ZONA RURAL                    7398496714                                         
032445204202105  980016283818122512520210501001320303140046709200265562933F291580J4590060000010713949        BPANICOLI BRUZELLI SANTOS VIEIRA 2015021303    010                                45140000081POCOES                                  30   SAO JOSE                                                                         
032445204202105  980016283818122512520210501001330301010048704206223114481M291710    0300000010213944        BPAMARCELO JOSE SILVA SANTOS     1991030302    010                                45710000081RUI BARBOSA                             160  COLONIA                                                                          
032445204202105  980016283818122512520210501001340301010048700500783463952F291710    0430000010213968        BPASUELI ROSA DE JESUS           1977112403    010                                4571000008102                                      10   JOAO CALIXTO                                                                     
032445204202105  980016283818122512520210501001350301010048709200265562933F291580    0060000010213943        BPANICOLI BRUZELLI SANTOS VIEIRA 2015021303    010                                45140000081POCOES                                  30   SAO JOSE                                                                         
032445204202105  980016283818122512520210501001360301010048700205412467124F291710    0380000010213960        BPAZAIARA CARDOSO DE MELO        1982111903    010                                45710000081MARCOLINO NEPOMUCENO                    217  CENTRO                                                                           
032445204202105  980016283818122512520210501001370301010048701008817782095F291710    0680000010213963        BPAMARIA NUNES DE SOUSA SANTOS   1952091003    010                                45710000081CILMO CEDRO                             51   CENTRO                                                                           
032445204202105  980016283818122512520210501001380301010048700402455950442F291710    0190000010213953        BPAAMANDA COSTA GONCALVES        2002011803    010                                45710000081X                                       121  LOT. SINVAL PALMEIRA                                                             
032445204202105  980016283818122512520210501001390301010048700604972811365F291710    0010000010213959        BPAMARIA FERNANDA DASMASCENO FARI2019092403    010                                457100000811° DE MAIO                              122  CENTRO                                                                           
032445204202105  980016283818122512520210501001400301010048200623930350006F291710    0410000010213965        BPAZILDA OLIVEIRA SOUSA          1979090503    010                                457120000811° DE MAIO                              222  RIO DO MEIO                                                                      
032445204202105  980016283818122512520210501001410301010048700804908943289F291710    0260000010213951        BPAJHULYE ANNE OLIVEIRA RODRIGUES1995031603    010                                45710000081BARAO DO RIO BRANCO                     698  CENTRO                                                                           
032445204202105  980016283818122512520210501001420301010048707606252615095M291710    0390000010213952        BPAWELDON ANDRADE DOS SANTOS     1982041703    010                                45710000081AB                                      11   LOT. SINVAL PALMEIRA                                                             
032445204202105  980016283818122512520210501001430301010048700100998582712M291710    0420000010213958        BPANERIVALDO ALVES ROCHA         1979020103    010                                45710000081ZC                                      11   LOT. SINVAL PALMEIRA                                                             
032445204202105  980016283818122512520210501001440301010048700509991785353M291710    0330000010213966        BPASILVONEI DOS SANTOS           1988053003    010                                45712000081MANOEL NOVAIS                           75   RIO DO MEIO                                                                      
032445204202105  980016283818122512520210501001450301010048706706587645515F291710    0630000010213950        BPAVALDICE FAGUNDES DO CARMO     1957080799    010                                45710000081BARAO DO RIO BRANCO                     1027 APARECIDA                                                                        
032445204202105  980016283818122512520210501001460301010048898005904182629M291710    0020000010213969        BPADEYVID ALMEIDA XAVIER         2019020299    010                                45712000081MARCOLINO NEPOMUCENO                    01   RIO DO MEIO                                                                      
032445204202105  980016283818122512520210501001470301010048700205911955027M291710    0070000010213964        BPADAVI AMORIM DOS SANTOS        2014020399    010                                45710000081JOAO ALVES DE OLIVEIRA                  330  CENTRO                                                                           
032445204202105  980016283818122512520210501001480202020380709200265562933F291580    0060000010213948        BPANICOLI BRUZELLI SANTOS VIEIRA 2015021303    010                                45140000081POCOES                                  30   SAO JOSE                                                                         
032445204202105  980016283818122512520210501001490211020036701008817782095F291710    0680000010213963        BPAMARIA NUNES DE SOUSA SANTOS   1952091003    010                                45710000081CILMO CEDRO                             51   CENTRO                                                                           
032445204202105  980016283818122512520210501001500301010072700500783463952F291710    0430000010213968        BPASUELI ROSA DE JESUS           1977112403    010                                4571000008102                                      10   JOAO CALIXTO                                                                     
032445204202105  980016283818122512520210501001510301010072709200265562933F291580    0060000010213943        BPANICOLI BRUZELLI SANTOS VIEIRA 2015021303    010                                45140000081POCOES                                  30   SAO JOSE                                                                         
032445204202105  980016283818122512520210501001520301010072709200265562933F291580    0060000010213948        BPANICOLI BRUZELLI SANTOS VIEIRA 2015021303    010                                45140000081POCOES                                  30   SAO JOSE                                                                         
032445204202105  980016283818122512520210501001530301010072700205412467124F291710    0380000010213960        BPAZAIARA CARDOSO DE MELO        1982111903    010                                45710000081MARCOLINO NEPOMUCENO                    217  CENTRO                                                                           
032445204202105  980016283818122512520210501001540301010072701008817782095F291710    0680000010213963        BPAMARIA NUNES DE SOUSA SANTOS   1952091003    010                                45710000081CILMO CEDRO                             51   CENTRO                                                                           
032445204202105  980016283818122512520210501001550301010072701008817782095F291710    0680000010213963        BPAMARIA NUNES DE SOUSA SANTOS   1952091003    010                                45710000081CILMO CEDRO                             51   CENTRO                                                                           
032445204202105  980016283818122512520210501001560301010072700402455950442F291710    0190000010213953        BPAAMANDA COSTA GONCALVES        2002011803    010                                45710000081X                                       121  LOT. SINVAL PALMEIRA                                                             
032445204202105  980016283818122512520210501001570301010072700604972811365F291710    0010000010213959        BPAMARIA FERNANDA DASMASCENO FARI2019092403    010                                457100000811° DE MAIO                              122  CENTRO                                                                           
032445204202105  980016283818122512520210501001580301010072200623930350006F291710    0410000010213965        BPAZILDA OLIVEIRA SOUSA          1979090503    010                                457120000811° DE MAIO                              222  RIO DO MEIO                                                                      
032445204202105  980016283818122512520210501001590301010072700804908943289F291710    0260000010213951        BPAJHULYE ANNE OLIVEIRA RODRIGUES1995031603    010                                45710000081BARAO DO RIO BRANCO                     698  CENTRO                                                                           
032445204202105  980016283818122512520210501001600301010072707606252615095M291710    0390000010213952        BPAWELDON ANDRADE DOS SANTOS     1982041703    010                                45710000081AB                                      11   LOT. SINVAL PALMEIRA                                                             
032445204202105  980016283818122512520210501001610301010072700100998582712M291710    0420000010213958        BPANERIVALDO ALVES ROCHA         1979020103    010                                45710000081ZC                                      11   LOT. SINVAL PALMEIRA                                                             
032445204202105  980016283818122512520210501001620301010072700509991785353M291710    0330000010213966        BPASILVONEI DOS SANTOS           1988053003    010                                45712000081MANOEL NOVAIS                           75   RIO DO MEIO                                                                      
032445204202105  980016283818122512520210501001630301010072706706587645515F291710    0630000010213950        BPAVALDICE FAGUNDES DO CARMO     1957080799    010                                45710000081BARAO DO RIO BRANCO                     1027 APARECIDA                                                                        
032445204202105  980016283818122512520210501001640301010072898005904182629M291710    0020000010213969        BPADEYVID ALMEIDA XAVIER         2019020299    010                                45712000081MARCOLINO NEPOMUCENO                    01   RIO DO MEIO                                                                      
032445204202105  980016283818122512520210501001650301010072700205911955027M291710    0070000010213964        BPADAVI AMORIM DOS SANTOS        2014020399    010                                45710000081JOAO ALVES DE OLIVEIRA                  330  CENTRO                                                                           
032445204202105  980016283818122512520210501001660301010072700205911955027M291710    0070000010213964        BPADAVI AMORIM DOS SANTOS        2014020399    010                                45710000081JOAO ALVES DE OLIVEIRA                  330  CENTRO                                                                           
032445204202105  980016283818122512520210501001670301060029700500783463952F291710    0430000010213968        BPASUELI ROSA DE JESUS           1977112403    010                                4571000008102                                      10   JOAO CALIXTO                                                                     
032445204202105  980016283818122512520210501001680301060029709200265562933F291580    0060000010213943        BPANICOLI BRUZELLI SANTOS VIEIRA 2015021303    010                                45140000081POCOES                                  30   SAO JOSE                                                                         
032445204202105  980016283818122512520210501001690301060029709200265562933F291580    0060000010213948        BPANICOLI BRUZELLI SANTOS VIEIRA 2015021303    010                                45140000081POCOES                                  30   SAO JOSE                                                                         
032445204202105  980016283818122512520210501001700301060029700205412467124F291710    0380000010213960        BPAZAIARA CARDOSO DE MELO        1982111903    010                                45710000081MARCOLINO NEPOMUCENO                    217  CENTRO                                                                           
032445204202105  980016283818122512520210501001710301060029701008817782095F291710    0680000010213963        BPAMARIA NUNES DE SOUSA SANTOS   1952091003    010                                45710000081CILMO CEDRO                             51   CENTRO                                                                           
032445204202105  980016283818122512520210501001720301060029700402455950442F291710    0190000010213953        BPAAMANDA COSTA GONCALVES        2002011803    010                                45710000081X                                       121  LOT. SINVAL PALMEIRA                                                             
032445204202105  980016283818122512520210501001730301060029700604972811365F291710    0010000010213959        BPAMARIA FERNANDA DASMASCENO FARI2019092403    010                                457100000811° DE MAIO                              122  CENTRO                                                                           
032445204202105  980016283818122512520210501001740301060029200623930350006F291710    0410000010213965        BPAZILDA OLIVEIRA SOUSA          1979090503    010                                457120000811° DE MAIO                              222  RIO DO MEIO                                                                      
032445204202105  980016283818122512520210501001750301060029700804908943289F291710    0260000010213951        BPAJHULYE ANNE OLIVEIRA RODRIGUES1995031603    010                                45710000081BARAO DO RIO BRANCO                     698  CENTRO                                                                           
032445204202105  980016283818122512520210501001760301060029707606252615095M291710    0390000010213952        BPAWELDON ANDRADE DOS SANTOS     1982041703    010                                45710000081AB                                      11   LOT. SINVAL PALMEIRA                                                             
032445204202105  980016283818122512520210501001770301060029700100998582712M291710    0420000010213958        BPANERIVALDO ALVES ROCHA         1979020103    010                                45710000081ZC                                      11   LOT. SINVAL PALMEIRA                                                             
032445204202105  980016283818122512520210501001780301060029700509991785353M291710    0330000010213966        BPASILVONEI DOS SANTOS           1988053003    010                                45712000081MANOEL NOVAIS                           75   RIO DO MEIO                                                                      
032445204202105  980016283818122512520210501001790301060029706706587645515F291710    0630000010213950        BPAVALDICE FAGUNDES DO CARMO     1957080799    010                                45710000081BARAO DO RIO BRANCO                     1027 APARECIDA                                                                        
032445204202105  980016283818122512520210501001800301060029898005904182629M291710    0020000010213969        BPADEYVID ALMEIDA XAVIER         2019020299    010                                45712000081MARCOLINO NEPOMUCENO                    01   RIO DO MEIO                                                                      
032445204202105  980016283818122512520210501001810301060029700205911955027M291710    0070000010213964        BPADAVI AMORIM DOS SANTOS        2014020399    010                                45710000081JOAO ALVES DE OLIVEIRA                  330  CENTRO                                                                           
032445204202105  980016283818122512520210501001820301100012700500783463952F291710    0430000010213968        BPASUELI ROSA DE JESUS           1977112403    010                                4571000008102                                      10   JOAO CALIXTO                                                                     
032445204202105  980016283818122512520210501001830301100012709200265562933F291580    0060000010213943        BPANICOLI BRUZELLI SANTOS VIEIRA 2015021303    010                                45140000081POCOES                                  30   SAO JOSE                                                                         
032445204202105  980016283818122512520210501001840301100012709200265562933F291580    0060000010213948        BPANICOLI BRUZELLI SANTOS VIEIRA 2015021303    010                                45140000081POCOES                                  30   SAO JOSE                                                                         
032445204202105  980016283818122512520210501001850301100012700205412467124F291710    0380000010213960        BPAZAIARA CARDOSO DE MELO        1982111903    010                                45710000081MARCOLINO NEPOMUCENO                    217  CENTRO                                                                           
032445204202105  980016283818122512520210501001860301100012701008817782095F291710    0680000010213963        BPAMARIA NUNES DE SOUSA SANTOS   1952091003    010                                45710000081CILMO CEDRO                             51   CENTRO                                                                           
032445204202105  980016283818122512520210501001870301100012700402455950442F291710    0190000010213953        BPAAMANDA COSTA GONCALVES        2002011803    010                                45710000081X                                       121  LOT. SINVAL PALMEIRA                                                             
032445204202105  980016283818122512520210501001880301100012700604972811365F291710    0010000010213959        BPAMARIA FERNANDA DASMASCENO FARI2019092403    010                                457100000811° DE MAIO                              122  CENTRO                                                                           
032445204202105  980016283818122512520210501001890301100012200623930350006F291710    0410000010213965        BPAZILDA OLIVEIRA SOUSA          1979090503    010                                457120000811° DE MAIO                              222  RIO DO MEIO                                                                      
032445204202105  980016283818122512520210501001900301100012700804908943289F291710    0260000010213951        BPAJHULYE ANNE OLIVEIRA RODRIGUES1995031603    010                                45710000081BARAO DO RIO BRANCO                     698  CENTRO                                                                           
032445204202105  980016283818122512520210501001910301100012707606252615095M291710    0390000010213952        BPAWELDON ANDRADE DOS SANTOS     1982041703    010                                45710000081AB                                      11   LOT. SINVAL PALMEIRA                                                             
032445204202105  980016283818122512520210501001920301100012700100998582712M291710    0420000010213958        BPANERIVALDO ALVES ROCHA         1979020103    010                                45710000081ZC                                      11   LOT. SINVAL PALMEIRA                                                             
032445204202105  980016283818122512520210501001930301100012700509991785353M291710    0330000010213966        BPASILVONEI DOS SANTOS           1988053003    010                                45712000081MANOEL NOVAIS                           75   RIO DO MEIO                                                                      
032445204202105  980016283818122512520210501001940301100012706706587645515F291710    0630000010213950        BPAVALDICE FAGUNDES DO CARMO     1957080799    010                                45710000081BARAO DO RIO BRANCO                     1027 APARECIDA                                                                        
032445204202105  980016283818122512520210501001950301100012898005904182629M291710    0020000010213969        BPADEYVID ALMEIDA XAVIER         2019020299    010                                45712000081MARCOLINO NEPOMUCENO                    01   RIO DO MEIO                                                                      
032445204202105  980016283818122512520210501001960301100012700205911955027M291710    0070000010213964        BPADAVI AMORIM DOS SANTOS        2014020399    010                                45710000081JOAO ALVES DE OLIVEIRA                  330  CENTRO                                                                           
032445204202105  980016283818122512520210501001970401010015704206223114481M291710    0300000010213944        BPAMARCELO JOSE SILVA SANTOS     1991030302    010                                45710000081RUI BARBOSA                             160  COLONIA                                                                          
032445204202105  980016283818122512520210501001980301010048704208728849081M291710    0710000010213942        BPAPEDRO CONCEICAO DO VALE       1950022303    010                                45710000081FAZ. CONJ. UNIAO (RIB. JOAO DI          SN   ZONA RURAL                                                                       
032445204202105  980016283818122512520210501001990301100012704208728849081M291710    0710000010213942        BPAPEDRO CONCEICAO DO VALE       1950022303    010                                45710000081FAZ. CONJ. UNIAO (RIB. JOAO DI          SN   ZONA RURAL                                                                       
032445204202105  980016283818122512520210501002010301010048709205242566430F291710    0430000010213956        BPAMAISA ARAUJO DOS SANTOS       1977090599    010                                45710000081                                        SN                                                                                    
032445204202105  980016283818122512520210501002020301010048203579002990009F291710    0410000010213957        BPAALANA LUZ DOS SANTOS          1979080199    010                                45710000081                                        SN                                                                                    
032445204202105  980016283818122512520210501002030301010072709205242566430F291710    0430000010213956        BPAMAISA ARAUJO DOS SANTOS       1977090599    010                                45710000081                                        SN                                                                                    
032445204202105  980016283818122512520210501002040301010072203579002990009F291710    0410000010213957        BPAALANA LUZ DOS SANTOS          1979080199    010                                45710000081                                        SN                                                                                    
032445204202105  980016283818122512520210501002050301060029709205242566430F291710    0430000010213956        BPAMAISA ARAUJO DOS SANTOS       1977090599    010                                45710000081                                        SN                                                                                    
032445204202105  980016283818122512520210501002060301060029203579002990009F291710    0410000010213957        BPAALANA LUZ DOS SANTOS          1979080199    010                                45710000081                                        SN                                                                                    
032445204202105  980016283818122512520210501002070301100012709205242566430F291710    0430000010213956        BPAMAISA ARAUJO DOS SANTOS       1977090599    010                                45710000081                                        SN                                                                                    
032445204202105  980016283818122512520210501002080301100012203579002990009F291710    0410000010213957        BPAALANA LUZ DOS SANTOS          1979080199    010                                45710000081                                        SN                                                                                    
032445204202105  980016283818122512520210502002090301010048704008848344566F291710    0280000010214210        BPAMICAELI FERREIRA SANTOS       1992121002    010                                45712000081BR. 415                                 SN   RIO DO MEIO                                                                      
032445204202105  980016283818122512520210502002100301010048707000835341838F291710    0430000010213986        BPAFABIANA CERQUEIRA DOS SANTOS  1978031103    010                                45710000081UMBURANA                                37   GAMELEIRA                     7399402632                                         
032445204202105  980016283818122512520210502002110301010048706700507844413F291710    0220000010213988        BPAANISIA FRANCISCA DOS SANTOS   1999031903    010                                45710000081SILVINO GOMES                           64   COLONIA                       7399903581                                         
032445204202105  980016283818122512520210502002120301010048708005353906527F291710    0190000010213993        BPABRENDA NASCIMENTO COSTA       2002020999    010                                4571200008107 DE SETEMBRO                          293  RIO DO MEIO                   7332672013                                         
032445204202105  980016283818122512520210502002130301010048700205446057727F291710    0360000010214006        BPAJUCELIA OLIVEIRA BARBOSA      1985011699    010                                45710000081JOAO CLEMENTE DA SILVA                  33   SINVAL PALMEIRA               NAOTEM                                             
032445204202105  980016283818122512520210502002140301010048700002739203203F291710    0330000010214007        BPALUCIELMA SILVA DOS SANTOS     1988012999    010                                45710000081ANDIROBA                                148  GAMELEIRRA                    NAOTEM                                             
032445204202105  980016283818122512520210502002150301010072708005353906527F291710    0190000010213993        BPABRENDA NASCIMENTO COSTA       2002020999    010                                4571200008107 DE SETEMBRO                          293  RIO DO MEIO                   7332672013                                         
032445204202105  980016283818122512520210502002160301060029707000835341838F291710    0430000010213986        BPAFABIANA CERQUEIRA DOS SANTOS  1978031103    010                                45710000081UMBURANA                                37   GAMELEIRA                     7399402632                                         
032445204202105  980016283818122512520210502002170301100012707000835341838F291710    0430000010213986        BPAFABIANA CERQUEIRA DOS SANTOS  1978031103    010                                45710000081UMBURANA                                37   GAMELEIRA                     7399402632                                         
032445204202105  980016283818122512520210502002180401010015707000835341838F291710    0430000010213986        BPAFABIANA CERQUEIRA DOS SANTOS  1978031103    010                                45710000081UMBURANA                                37   GAMELEIRA                     7399402632                                         
032445204202105  980016283818122512520210502002190301060029706700507844413F291710    0220000010213988        BPAANISIA FRANCISCA DOS SANTOS   1999031903    010                                45710000081SILVINO GOMES                           64   COLONIA                       7399903581                                         
032445204202105  980016283818122512520210502002200301060029700205446057727F291710    0360000010214006        BPAJUCELIA OLIVEIRA BARBOSA      1985011699    010                                45710000081JOAO CLEMENTE DA SILVA                  33   SINVAL PALMEIRA               NAOTEM                                             
032445204202105  980016283818122512520210502002210301060029700002739203203F291710    0330000010214007        BPALUCIELMA SILVA DOS SANTOS     1988012999    010                                45710000081ANDIROBA                                148  GAMELEIRRA                    NAOTEM                                             
032445204202105  980016283818122512520210502002220301100012706700507844413F291710    0220000010213988        BPAANISIA FRANCISCA DOS SANTOS   1999031903    010                                45710000081SILVINO GOMES                           64   COLONIA                       7399903581                                         
032445204202105  980016283818122512520210502002230301100012700205446057727F291710    0360000010214006        BPAJUCELIA OLIVEIRA BARBOSA      1985011699    010                                45710000081JOAO CLEMENTE DA SILVA                  33   SINVAL PALMEIRA               NAOTEM                                             
032445204202105  980016283818122512520210502002240301100012700002739203203F291710    0330000010214007        BPALUCIELMA SILVA DOS SANTOS     1988012999    010                                45710000081ANDIROBA                                148  GAMELEIRRA                    NAOTEM                                             
032445204202105  980016283818122512520210502002250303100044704008848344566F291710O2090280000010714000        BPAMICAELI FERREIRA SANTOS       1992121002    010                                45712000081BR. 415                                 SN   RIO DO MEIO                                                                      
032445204202105  980016283818122512520210502002260303100044704802528021844F291710O2180400000010713990        BPAMARCILEIA SOUSA FERREIRA      1981052303    010                                45714000081BOM JARDIM                              SN   ITATI                                                                            
032445204202105  980016283818122512520210502002270301010048702404006593020F291640    0770000010213989        BPAMARIA ALZIRA REZENDE DE MATOS 1943070201    010                                45705000081RUY BARBOSA                             SN   BANDEIRA DO COLÔNIA                                                              
032445204202105  980016283818122512520210502002280301010048704303590477894F291710    0270000010213987        BPAMONIQUE PEREIRA GONCALVES     1994040701    010                                45710000081PE. SEBASTIAO                           81   CENTRO                                                                           
032445204202105  980016283818122512520210502002290301010048704008848344566F291710    0280000010213996        BPAMICAELI FERREIRA SANTOS       1992121002    010                                45712000081BR. 415                                 SN   RIO DO MEIO                                                                      
032445204202105  980016283818122512520210502002300301010048898004955667513F291710    0050000010213999        BPANADABE LEVY BASTOS SANTOS     2015122603    010                                45710000081T                                       SN   GAMELEIRA                                                                        
032445204202105  980016283818122512520210502002310301010048701200048958914F291640    0680000010214010        BPAIDALIA RODRIGUES CAETANO      1952070503    010                                45705000081H                                       SN   BANDEIRA DO COLÔNIA                                                              
032445204202105  980016283818122512520210502002320301010048702607726804047F291710    0000000010213992        BPAFLAVHIANE RAMOS DE OLIVEIRA   2021012803    010                                45712000081MARCOLINO NEPOMUCENO                    236  RIO DO MEIO                                                                      
032445204202105  980016283818122512520210502002330301010048707807677360313F291710    0400000010214008        BPADORALICE VIANA SILVA          1980060603    010                                45710000081JACONIAS DE MATOS                       33   SINVAL PALMEIRA                                                                  
032445204202105  980016283818122512520210502002340301010048705805492737730F291710    0160000010213991        BPATAINARA DOS SANTOS BISPO      2004071903    010                                45710000081T                                       73   GAMELEIRA                                                                        
032445204202105  980016283818122512520210502002350301010048700302907488335F291710    0100000010214003        BPALARISSA DOS SANTOS PRATES     2011020603    010                                45710000081V                                       76   GAMELEIRA                                                                        
032445204202105  980016283818122512520210502002360301010048898004668826504M291710    0060000010214001        BPADAVI LUCAS GUIMARAES SILVA    2015051403    010                                45710000081AV. JOAO HORTELIO                       50   CENTRO                                                                           
032445204202105  980016283818122512520210502002370301010048898005902670405M291640    0210000010214004        BPAVITOR SILVA HASSEGAWA         1999062803    010                                457050000812 DE JULHO                              25   BANDEIRA DO COLÔNIA                                                              
032445204202105  980016283818122512520210502002380301010048708603563511785M291710    0260000010213997        BPAMARCOS FELIPE ALVARINTHO SOUZA1995033103    010                                45710000081F                                       164  SINVAL PALMEIRA                                                                  
032445204202105  980016283818122512520210502002390301010048209626407800006M291640    0220000010214009        BPAMATHEUS MOREIRA BATISTA       1999031603    010                                4570500008102 DE JULHO                             167  BANDEIRA DO COLÔNIA                                                              
032445204202105  980016283818122512520210502002400301010048705802474348539M291710    0160000010213998        BPAWENNDELL SANTOS SOTERO        2005030903    010                                45710000081DR. PEDRO LOPO CAZAS                    18   JOAO CALIXTO                                                                     
032445204202105  980016283818122512520210502002410301010048898005814893275F291710    0030000010214002        BPAKAMILLY CARVALHO NINCK DA SILV2017102099    010                                45710000081V                                       66   GAMELEIRA                                                                        
032445204202105  980016283818122512520210502002420301010048700108991700717F291710    0090000010214005        BPAROGERIO VIEIRA BISPO          2011060199    010                                45710000081JOSE DO PATROCINIO                      184  CENTRO                                                                           
032445204202105  980016283818122512520210502002430301010048706504354352493M291710    0800000010213994        BPAESTEVAO SANTOS DA SILVA FERREI1941040999    010                                45710000081Q                                       786  SINVAL PALMEIRA                                                                  
032445204202105  980016283818122512520210502002440301010072704303590477894F291710    0270000010213987        BPAMONIQUE PEREIRA GONCALVES     1994040701    010                                45710000081PE. SEBASTIAO                           81   CENTRO                                                                           
032445204202105  980016283818122512520210502002450301010072704008848344566F291710    0280000010213996        BPAMICAELI FERREIRA SANTOS       1992121002    010                                45712000081BR. 415                                 SN   RIO DO MEIO                                                                      
032445204202105  980016283818122512520210502002460301010072702607726804047F291710    0000000010213992        BPAFLAVHIANE RAMOS DE OLIVEIRA   2021012803    010                                45712000081MARCOLINO NEPOMUCENO                    236  RIO DO MEIO                                                                      
032445204202105  980016283818122512520210502002470301010072706504354352493M291710    0800000010213994        BPAESTEVAO SANTOS DA SILVA FERREI1941040999    010                                45710000081Q                                       786  SINVAL PALMEIRA                                                                  
032445204202105  980016283818122512520210502002480202020380898004668826504M291710    0060000010214001        BPADAVI LUCAS GUIMARAES SILVA    2015051403    010                                45710000081AV. JOAO HORTELIO                       50   CENTRO                                                                           
032445204202105  980016283818122512520210502002490301060029702404006593020F291640    0770000010213989        BPAMARIA ALZIRA REZENDE DE MATOS 1943070201    010                                45705000081RUY BARBOSA                             SN   BANDEIRA DO COLÔNIA                                                              
032445204202105  980016283818122512520210502002500301060029898004955667513F291710    0050000010213999        BPANADABE LEVY BASTOS SANTOS     2015122603    010                                45710000081T                                       SN   GAMELEIRA                                                                        
032445204202105  980016283818122512520210502002510301060029705805492737730F291710    0160000010213991        BPATAINARA DOS SANTOS BISPO      2004071903    010                                45710000081T                                       73   GAMELEIRA                                                                        
032445204202105  980016283818122512520210502002520301060029700302907488335F291710    0100000010214003        BPALARISSA DOS SANTOS PRATES     2011020603    010                                45710000081V                                       76   GAMELEIRA                                                                        
032445204202105  980016283818122512520210502002530301060029898004668826504M291710    0060000010214001        BPADAVI LUCAS GUIMARAES SILVA    2015051403    010                                45710000081AV. JOAO HORTELIO                       50   CENTRO                                                                           
032445204202105  980016283818122512520210502002540301060029898005902670405M291640    0210000010214004        BPAVITOR SILVA HASSEGAWA         1999062803    010                                457050000812 DE JULHO                              25   BANDEIRA DO COLÔNIA                                                              
032445204202105  980016283818122512520210502002550301060029708603563511785M291710    0260000010213997        BPAMARCOS FELIPE ALVARINTHO SOUZA1995033103    010                                45710000081F                                       164  SINVAL PALMEIRA                                                                  
032445204202105  980016283818122512520210502002560301060029209626407800006M291640    0220000010214009        BPAMATHEUS MOREIRA BATISTA       1999031603    010                                4570500008102 DE JULHO                             167  BANDEIRA DO COLÔNIA                                                              
032445204202105  980016283818122512520210502002570301060029705802474348539M291710    0160000010213998        BPAWENNDELL SANTOS SOTERO        2005030903    010                                45710000081DR. PEDRO LOPO CAZAS                    18   JOAO CALIXTO                                                                     
032445204202105  980016283818122512520210502002580301060029898005814893275F291710    0030000010214002        BPAKAMILLY CARVALHO NINCK DA SILV2017102099    010                                45710000081V                                       66   GAMELEIRA                                                                        
032445204202105  980016283818122512520210502002590301060029700108991700717F291710    0090000010214005        BPAROGERIO VIEIRA BISPO          2011060199    010                                45710000081JOSE DO PATROCINIO                      184  CENTRO                                                                           
032445204202105  980016283818122512520210502002600301100012702404006593020F291640    0770000010213989        BPAMARIA ALZIRA REZENDE DE MATOS 1943070201    010                                45705000081RUY BARBOSA                             SN   BANDEIRA DO COLÔNIA                                                              
032445204202105  980016283818122512520210502002610301100012898004955667513F291710    0050000010213999        BPANADABE LEVY BASTOS SANTOS     2015122603    010                                45710000081T                                       SN   GAMELEIRA                                                                        
032445204202105  980016283818122512520210502002620301100012705805492737730F291710    0160000010213991        BPATAINARA DOS SANTOS BISPO      2004071903    010                                45710000081T                                       73   GAMELEIRA                                                                        
032445204202105  980016283818122512520210502002630301100012700302907488335F291710    0100000010214003        BPALARISSA DOS SANTOS PRATES     2011020603    010                                45710000081V                                       76   GAMELEIRA                                                                        
032445204202105  980016283818122512520210502002640301100012898004668826504M291710    0060000010214001        BPADAVI LUCAS GUIMARAES SILVA    2015051403    010                                45710000081AV. JOAO HORTELIO                       50   CENTRO                                                                           
032445204202105  980016283818122512520210502002650301100012898005902670405M291640    0210000010214004        BPAVITOR SILVA HASSEGAWA         1999062803    010                                457050000812 DE JULHO                              25   BANDEIRA DO COLÔNIA                                                              
032445204202105  980016283818122512520210502002660301100012708603563511785M291710    0260000010213997        BPAMARCOS FELIPE ALVARINTHO SOUZA1995033103    010                                45710000081F                                       164  SINVAL PALMEIRA                                                                  
032445204202105  980016283818122512520210502002670301100012209626407800006M291640    0220000010214009        BPAMATHEUS MOREIRA BATISTA       1999031603    010                                4570500008102 DE JULHO                             167  BANDEIRA DO COLÔNIA                                                              
032445204202105  980016283818122512520210502002680301100012705802474348539M291710    0160000010213998        BPAWENNDELL SANTOS SOTERO        2005030903    010                                45710000081DR. PEDRO LOPO CAZAS                    18   JOAO CALIXTO                                                                     
032445204202105  980016283818122512520210502002690301100012898005814893275F291710    0030000010214002        BPAKAMILLY CARVALHO NINCK DA SILV2017102099    010                                45710000081V                                       66   GAMELEIRA                                                                        
032445204202105  980016283818122512520210502002700301100012700108991700717F291710    0090000010214005        BPAROGERIO VIEIRA BISPO          2011060199    010                                45710000081JOSE DO PATROCINIO                      184  CENTRO                                                                           
032445204202105  980016283818122512520210502002710202020380000000000000000F291640    0590000010213995        BPAMARIA ROSINEIDE REZENDE DE MAT1962030503    010                                45705000081RUI BARBOSA                             47   BANDEIRA DO COLÔNIA                                                              
032445204202105  980016283818122512520210502002720301010048000000000000000F291640    0590000010213995        BPAMARIA ROSINEIDE REZENDE DE MAT1962030503    010                                45705000081RUI BARBOSA                             47   BANDEIRA DO COLÔNIA                                                              
032445204202105  980016283818122512520210502002730301060029000000000000000F291640    0590000010213995        BPAMARIA ROSINEIDE REZENDE DE MAT1962030503    010                                45705000081RUI BARBOSA                             47   BANDEIRA DO COLÔNIA                                                              
032445204202105  980016283818122512520210502002740301100012000000000000000F291640    0590000010213995        BPAMARIA ROSINEIDE REZENDE DE MAT1962030503    010                                45705000081RUI BARBOSA                             47   BANDEIRA DO COLÔNIA                                                              
032445204202105  980016283818122512520210502002750301010048702308131433712F291710    0580000010213980        BPAJUSILEIDE PRATES CRUZ         1962101503    010                                45710000081ETELVINO PRATES                         SN   SINVAL PALMEIRA               NAOTEM                                             
032445204202105  980016283818122512520210502002760301010048702803140705666M291710    0360000010213979        BPAFAGNER FERNANDES DE SOUZA     1984071703    010                                4571000008102 DE JULHO                             203  CENTRO                        NAOTEM                                             
032445204202105  980016283818122512520210502002770301060029702308131433712F291710    0580000010213980        BPAJUSILEIDE PRATES CRUZ         1962101503    010                                45710000081ETELVINO PRATES                         SN   SINVAL PALMEIRA               NAOTEM                                             
032445204202105  980016283818122512520210502002780301060029702803140705666M291710    0360000010213979        BPAFAGNER FERNANDES DE SOUZA     1984071703    010                                4571000008102 DE JULHO                             203  CENTRO                        NAOTEM                                             
032445204202105  980016283818122512520210502002790301100012702308131433712F291710    0580000010213980        BPAJUSILEIDE PRATES CRUZ         1962101503    010                                45710000081ETELVINO PRATES                         SN   SINVAL PALMEIRA               NAOTEM                                             
032445204202105  980016283818122512520210502002800301100012702803140705666M291710    0360000010213979        BPAFAGNER FERNANDES DE SOUZA     1984071703    010                                4571000008102 DE JULHO                             203  CENTRO                        NAOTEM                                             
032445204202105  980016283818122512520210502002810303060131700208467245029F291710J81 0810000010713977        BPALOURDES MARIA DE SOUZA        1939073099    010                                45710000081MAL. FLORIANO PEIXOTO                   517  APARECIDA                                                                        
032445204202105  980016283818122512520210502002820303070102700403903388042M291710K9200780000010713978        BPAJONAS ROSA DA SILVA           1943012199    010                                45710000081RUI BARBOSA                             459  COLONIA                                                                          
032445204202105  980016283818122512520210502002830301010048704802528021844F291710    0400000010213985        BPAMARCILEIA SOUSA FERREIRA      1981052303    010                                45714000081BOM JARDIM                              SN   ITATI                                                                            
032445204202105  980016283818122512520210502002840301010048708903726927117F291580    0510000010213982        BPAMARGARIDA DE SOUSA SANTOS FERN1969100303    010                                45142000081DO MACUCO                               131  SÃO JOSÉ DO COLÔNIA                                                              
032445204202105  980016283818122512520210502002850301010048709202267216430F291710    0600000010213981        BPAJOSEFA BATISTA DE JESUS SANTOS1960111203    010                                45710000081AV. ROBSON ROSA                         66   SINVAL PALMEIRA                                                                  
032445204202105  980016283818122512520210502002860301010048700005470005601M291710    0000000010213984        BPAGABRIEL JARDIM TELES          2021020303    010                                45710000081JUREMA                                  105  GAMELEIRA                                                                        
032445204202105  980016283818122512520210502002870301010048700208467245029F291710    0810000010213976        BPALOURDES MARIA DE SOUZA        1939073099    010                                45710000081MAL. FLORIANO PEIXOTO                   517  APARECIDA                                                                        
032445204202105  980016283818122512520210502002880301010048706904146930931M291710    0000000010213983        BPAPEDRO PAIVA SANTOS ROCHA      2020111999    010                                45710000081SINVAL PALMEIRA                         45   DOCE VIDA                                                                        
032445204202105  980016283818122512520210502002890301010048700403903388042M291710    0780000010213975        BPAJONAS ROSA DA SILVA           1943012199    010                                45710000081RUI BARBOSA                             459  COLONIA                                                                          
032445204202105  980016283818122512520210502002900301010072706904146930931M291710    0000000010213983        BPAPEDRO PAIVA SANTOS ROCHA      2020111999    010                                45710000081SINVAL PALMEIRA                         45   DOCE VIDA                                                                        
032445204202105  980016283818122512520210502002910301060029704802528021844F291710    0400000010213985        BPAMARCILEIA SOUSA FERREIRA      1981052303    010                                45714000081BOM JARDIM                              SN   ITATI                                                                            
032445204202105  980016283818122512520210502002920301060029708903726927117F291580    0510000010213982        BPAMARGARIDA DE SOUSA SANTOS FERN1969100303    010                                45142000081DO MACUCO                               131  SÃO JOSÉ DO COLÔNIA                                                              
032445204202105  980016283818122512520210502002930301060029709202267216430F291710    0600000010213981        BPAJOSEFA BATISTA DE JESUS SANTOS1960111203    010                                45710000081AV. ROBSON ROSA                         66   SINVAL PALMEIRA                                                                  
032445204202105  980016283818122512520210502002940301060029700005470005601M291710    0000000010213984        BPAGABRIEL JARDIM TELES          2021020303    010                                45710000081JUREMA                                  105  GAMELEIRA                                                                        
032445204202105  980016283818122512520210502002950301060029700208467245029F291710    0810000010213976        BPALOURDES MARIA DE SOUZA        1939073099    010                                45710000081MAL. FLORIANO PEIXOTO                   517  APARECIDA                                                                        
032445204202105  980016283818122512520210502002960301060029700403903388042M291710    0780000010213975        BPAJONAS ROSA DA SILVA           1943012199    010                                45710000081RUI BARBOSA                             459  COLONIA                                                                          
032445204202105  980016283818122512520210502002970301100012704802528021844F291710    0400000010213985        BPAMARCILEIA SOUSA FERREIRA      1981052303    010                                45714000081BOM JARDIM                              SN   ITATI                                                                            
032445204202105  980016283818122512520210502002980301100012708903726927117F291580    0510000010213982        BPAMARGARIDA DE SOUSA SANTOS FERN1969100303    010                                45142000081DO MACUCO                               131  SÃO JOSÉ DO COLÔNIA                                                              
032445204202105  980016283818122512520210502002990301100012709202267216430F291710    0600000010213981        BPAJOSEFA BATISTA DE JESUS SANTOS1960111203    010                                45710000081AV. ROBSON ROSA                         66   SINVAL PALMEIRA                                                                  
032445204202105  980016283818122512520210502003010301100012700005470005601M291710    0000000010213984        BPAGABRIEL JARDIM TELES          2021020303    010                                45710000081JUREMA                                  105  GAMELEIRA                                                                        
032445204202105  980016283818122512520210502003020301100012700208467245029F291710    0810000010213976        BPALOURDES MARIA DE SOUZA        1939073099    010                                45710000081MAL. FLORIANO PEIXOTO                   517  APARECIDA                                                                        
032445204202105  980016283818122512520210502003030301100012700403903388042M291710    0780000010213975        BPAJONAS ROSA DA SILVA           1943012199    010                                45710000081RUI BARBOSA                             459  COLONIA                                                                          
032445204202105  980016283818122512520210503003040301010048700801985339983M291710    0370000010214011        BPAALEX DA SILVA ALVES           1983101901    010                                45710000081MAL. TEIXEIRA LOTT                      625  CENTRO                        7399500080                                         
032445204202105  980016283818122512520210503003050301010048704105175990973F291710    0170000010214017        BPAKAWANNA OLIVEIRA DA SILVA     2004051603    010                                45710000081B                                       SN   SINVAL PALMEIRA               7399467506                                         
032445204202105  980016283818122512520210503003060211020036700801985339983M291710    0370000010214011        BPAALEX DA SILVA ALVES           1983101901    010                                45710000081MAL. TEIXEIRA LOTT                      625  CENTRO                        7399500080                                         
032445204202105  980016283818122512520210503003070301100012700801985339983M291710    0370000010214011        BPAALEX DA SILVA ALVES           1983101901    010                                45710000081MAL. TEIXEIRA LOTT                      625  CENTRO                        7399500080                                         
032445204202105  980016283818122512520210503003080301100012704105175990973F291710    0170000010214017        BPAKAWANNA OLIVEIRA DA SILVA     2004051603    010                                45710000081B                                       SN   SINVAL PALMEIRA               7399467506                                         
032445204202105  980016283818122512520210515003090301010048700508330035352M291710    0630000010214730        BPAELENIDIO DE JESUS             1957090303    010                                45710000081JOSE DO PATROCINIO                      95   CENTRO                        7382265618                                         
032445204202105  980016283818122512520210515003100301010048700800912723189F291710    0430000010214731        BPACLEIDIMARA DIAS CAMPOS        1978032499    010                                45710000081CAM. 08                                 17   URBIS                         7398583107                                         
032445204202105  980016283818122512520210515003110301010072700508330035352M291710    0630000010214730        BPAELENIDIO DE JESUS             1957090303    010                                45710000081JOSE DO PATROCINIO                      95   CENTRO                        7382265618                                         
032445204202105  980016283818122512520210515003120301010072700800912723189F291710    0430000010214731        BPACLEIDIMARA DIAS CAMPOS        1978032499    010                                45710000081CAM. 08                                 17   URBIS                         7398583107                                         
032445204202105  980016283818122512520210515003130301100012700508330035352M291710    0630000010214730        BPAELENIDIO DE JESUS             1957090303    010                                45710000081JOSE DO PATROCINIO                      95   CENTRO                        7382265618                                         
032445204202105  980016283818122512520210515003140301100012700800912723189F291710    0430000010214731        BPACLEIDIMARA DIAS CAMPOS        1978032499    010                                45710000081CAM. 08                                 17   URBIS                         7398583107                                         
032445204202105  980016283818122512520210515003150303060212700600404535363F291710i5090590000010714727        BPAAUTALINA ROCHA DOS SANTOS LEMO1961070903    010                                45710000081SILVINO GOMES                           235  CENTRO                                                                           
032445204202105  980016283818122512520210515003160303070072707000884002537M291710k7030530000010714721        BPAOSMAR DA CRUZ SANTOS          1967072103    010                                45710000081RUI BARBOSA                             462  CENTRO                                                                           
032445204202105  980016283818122512520210515003170301010048702600752460043M291710    0340000010214726        BPADANILO OLIVEIRA DOS SANTOS    1986090402    010                                45710000081CAM 04                                  09   URBIS                                                                            
032445204202105  980016283818122512520210515003180301010048705603418367615F291710    0160000010214722        BPARAYSSA AMERICANO SANTOS DE MEN2005050603    010                                45710000081BARAO DO RIO BRANCO                     1033 APARECIDA                                                                        
032445204202105  980016283818122512520210515003190301010048705007672450358F291710    0140000010214723        BPAGEOVANA LIMA CONCEICAO        2006113003    010                                45712000081MARCOLINO NEPOMUCENO                    30   RIO DO MEIO                                                                      
032445204202105  980016283818122512520210515003200301010048700004591589905F291710    0320000010214695        BPAMARIA APARECIDA MOUTINHO DOS S1989010503    010                                45710000081JOAO CLEMENTE DA SILVA                  80   APARECIDA                                                                        
032445204202105  980016283818122512520210515003210301010048705000472172757F291710    0300000010214728        BPAJESSICA MENDONCA SOUSA        1991040403    010                                4571000008101 DE MAIO                              323  CENTRO                                                                           
032445204202105  980016283818122512520210515003220301010048700600404535363F291710    0590000010214725        BPAAUTALINA ROCHA DOS SANTOS LEMO1961070903    010                                45710000081SILVINO GOMES                           235  CENTRO                                                                           
032445204202105  980016283818122512520210515003230301010048701807259991475F291710    0260000010214732        BPAMIKAELE BORGES DOS SANTOS     1995040303    010                                45710000081U                                       146  GAMELEIRA                                                                        
032445204202105  980016283818122512520210515003240301010048705009605970851F291710    0890000010214713        BPAMARIA JOSE BRITO DOS SANTOS   1931102103    010                                45710000081JOAO ALVES DE OLIVEIRA                  06   CENTRO                                                                           
032445204202105  980016283818122512520210515003250301010048706406121033584F291710    0940000010214714        BPALIDIA DA SILVA VIEIRA         1927010403    010                                4571000008122 DE AGOSTO                            261  COLONIA                                                                          
032445204202105  980016283818122512520210515003260301010048700005079731006F291710    0180000010214693        BPAHAFILA OLIVEIRA AGUIAR        2002071103    010                                45712000081MARCOLINO NEPOMUCENO                    08   RIO DO MEIO                                                                      
032445204202105  980016283818122512520210515003270301010048700505106841054M291710    0330000010214709        BPAWASHINGTON DA CRUZ SANTOS     1988032203    010                                45712000081SILVIO BENICIO                          208  RIO DO MEIO                                                                      
032445204202105  980016283818122512520210515003280301010048700607482965660M291710    0710000010214734        BPAJOSE GREGORIO SOUZA           1950052003    010                                45710000081T                                       112  LOT. SINVAL PALMEIRA                                                             
032445204202105  980016283818122512520210515003290301010048701809280111375M291710    0380000010214711        BPAARNALDO MACEDO DOS SANTOS FILH1982103003    010                                45710000081FLORISVALDO BRITO                       297  CENTRO                                                                           
032445204202105  980016283818122512520210515003300301010048801440401947055F291710    0640000010214694        BPACREUSA ROSA SAMPAIO           1956082399    010                                45712000081MANOEL NOVAIS                           554  RIO DO MEIO                                                                      
032445204202105  980016283818122512520210515003310301010048705400486243291M291710    0420000010214710        BPALAELSON DOS SANTOS TELES      1978112599    010                                45710000081Q                                       SN   SINVAL PALMEIRA                                                                  
032445204202105  980016283818122512520210515003320301010048898003052564848M291710    0100000010214735        BPAERISLAN SILVA PEREIRA         2011041299    010                                45714000081RUI BARBOSA                             114  ITATI                                                                            
032445204202105  980016283818122512520210515003330301010048898003257076373M291710    0120000010214733        BPARAMON SILVA DE JESUS          2009013199    010                                4571200008101 DE MAIO                              SN   RIO DO MEIO                                                                      
032445204202105  980016283818122512520210515003340301010072705007672450358F291710    0140000010214723        BPAGEOVANA LIMA CONCEICAO        2006113003    010                                45712000081MARCOLINO NEPOMUCENO                    30   RIO DO MEIO                                                                      
032445204202105  980016283818122512520210515003350301010072898003052564848M291710    0100000010214735        BPAERISLAN SILVA PEREIRA         2011041299    010                                45714000081RUI BARBOSA                             114  ITATI                                                                            
032445204202105  980016283818122512520210515003360301100012898005837058593M291660    0320000010214724        BPALUIZ CARLOS FERREIRA DOS SANTO1988110599    010                                45705000081AV DA SAUDADE                           13270BANDEIRA DO COLÔNIA                                                              
032445204202105  980016283818122512520210515003370301100012898005837058593M291660    0320000010214724        BPALUIZ CARLOS FERREIRA DOS SANTO1988110599    010                                45705000081AV DA SAUDADE                           13270BANDEIRA DO COLÔNIA                                                              
032445204202105  980016283818122512520210515003380401010015898005837058593M291660    0320000010214724        BPALUIZ CARLOS FERREIRA DOS SANTO1988110599    010                                45705000081AV DA SAUDADE                           13270BANDEIRA DO COLÔNIA                                                              
032445204202105  980016283818122512520210515003390204030170898005837058593M291660    0320000010214724        BPALUIZ CARLOS FERREIRA DOS SANTO1988110599    010                                45705000081AV DA SAUDADE                           13270BANDEIRA DO COLÔNIA                                                              
032445204202105  980016283818122512520210515003400211020036705000472172757F291710    0300000010214728        BPAJESSICA MENDONCA SOUSA        1991040403    010                                4571000008101 DE MAIO                              323  CENTRO                                                                           
032445204202105  980016283818122512520210515003410301010048705000472172757F291710    0300000010214728        BPAJESSICA MENDONCA SOUSA        1991040403    010                                4571000008101 DE MAIO                              323  CENTRO                                                                           
032445204202105  980016283818122512520210515003420301010072702600752460043M291710    0340000010214726        BPADANILO OLIVEIRA DOS SANTOS    1986090402    010                                45710000081CAM 04                                  09   URBIS                                                                            
032445204202105  980016283818122512520210515003430301010072705603418367615F291710    0160000010214722        BPARAYSSA AMERICANO SANTOS DE MEN2005050603    010                                45710000081BARAO DO RIO BRANCO                     1033 APARECIDA                                                                        
032445204202105  980016283818122512520210515003440301010072700004591589905F291710    0320000010214695        BPAMARIA APARECIDA MOUTINHO DOS S1989010503    010                                45710000081JOAO CLEMENTE DA SILVA                  80   APARECIDA                                                                        
032445204202105  980016283818122512520210515003450301010072705000472172757F291710    0300000010214728        BPAJESSICA MENDONCA SOUSA        1991040403    010                                4571000008101 DE MAIO                              323  CENTRO                                                                           
032445204202105  980016283818122512520210515003460301010072700600404535363F291710    0590000010214725        BPAAUTALINA ROCHA DOS SANTOS LEMO1961070903    010                                45710000081SILVINO GOMES                           235  CENTRO                                                                           
032445204202105  980016283818122512520210515003470301010072701807259991475F291710    0260000010214732        BPAMIKAELE BORGES DOS SANTOS     1995040303    010                                45710000081U                                       146  GAMELEIRA                                                                        
032445204202105  980016283818122512520210515003480301010072705009605970851F291710    0890000010214713        BPAMARIA JOSE BRITO DOS SANTOS   1931102103    010                                45710000081JOAO ALVES DE OLIVEIRA                  06   CENTRO                                                                           
032445204202105  980016283818122512520210515003490301010072700005079731006F291710    0180000010214693        BPAHAFILA OLIVEIRA AGUIAR        2002071103    010                                45712000081MARCOLINO NEPOMUCENO                    08   RIO DO MEIO                                                                      
032445204202105  980016283818122512520210515003500301010072700505106841054M291710    0330000010214709        BPAWASHINGTON DA CRUZ SANTOS     1988032203    010                                45712000081SILVIO BENICIO                          208  RIO DO MEIO                                                                      
032445204202105  980016283818122512520210515003510301010072700607482965660M291710    0710000010214734        BPAJOSE GREGORIO SOUZA           1950052003    010                                45710000081T                                       112  LOT. SINVAL PALMEIRA                                                             
032445204202105  980016283818122512520210515003520301010072701809280111375M291710    0380000010214711        BPAARNALDO MACEDO DOS SANTOS FILH1982103003    010                                45710000081FLORISVALDO BRITO                       297  CENTRO                                                                           
032445204202105  980016283818122512520210515003530301010072801440401947055F291710    0640000010214694        BPACREUSA ROSA SAMPAIO           1956082399    010                                45712000081MANOEL NOVAIS                           554  RIO DO MEIO                                                                      
032445204202105  980016283818122512520210515003540301010072705400486243291M291710    0420000010214710        BPALAELSON DOS SANTOS TELES      1978112599    010                                45710000081Q                                       SN   SINVAL PALMEIRA                                                                  
032445204202105  980016283818122512520210515003550301010072898003257076373M291710    0120000010214733        BPARAMON SILVA DE JESUS          2009013199    010                                4571200008101 DE MAIO                              SN   RIO DO MEIO                                                                      
032445204202105  980016283818122512520210515003560301010072898003257076373M291710    0120000010214733        BPARAMON SILVA DE JESUS          2009013199    010                                4571200008101 DE MAIO                              SN   RIO DO MEIO                                                                      
032445204202105  980016283818122512520210515003570301100012702600752460043M291710    0340000010214726        BPADANILO OLIVEIRA DOS SANTOS    1986090402    010                                45710000081CAM 04                                  09   URBIS                                                                            
032445204202105  980016283818122512520210515003580301100012700004591589905F291710    0320000010214695        BPAMARIA APARECIDA MOUTINHO DOS S1989010503    010                                45710000081JOAO CLEMENTE DA SILVA                  80   APARECIDA                                                                        
032445204202105  980016283818122512520210515003590301100012705000472172757F291710    0300000010214728        BPAJESSICA MENDONCA SOUSA        1991040403    010                                4571000008101 DE MAIO                              323  CENTRO                                                                           
032445204202105  980016283818122512520210515003600301100012700600404535363F291710    0590000010214725        BPAAUTALINA ROCHA DOS SANTOS LEMO1961070903    010                                45710000081SILVINO GOMES                           235  CENTRO                                                                           
032445204202105  980016283818122512520210515003610301100012701807259991475F291710    0260000010214732        BPAMIKAELE BORGES DOS SANTOS     1995040303    010                                45710000081U                                       146  GAMELEIRA                                                                        
032445204202105  980016283818122512520210515003620301100012705009605970851F291710    0890000010214713        BPAMARIA JOSE BRITO DOS SANTOS   1931102103    010                                45710000081JOAO ALVES DE OLIVEIRA                  06   CENTRO                                                                           
032445204202105  980016283818122512520210515003630301100012706406121033584F291710    0940000010214714        BPALIDIA DA SILVA VIEIRA         1927010403    010                                4571000008122 DE AGOSTO                            261  COLONIA                                                                          
032445204202105  980016283818122512520210515003640301100012700005079731006F291710    0180000010214693        BPAHAFILA OLIVEIRA AGUIAR        2002071103    010                                45712000081MARCOLINO NEPOMUCENO                    08   RIO DO MEIO                                                                      
032445204202105  980016283818122512520210515003650301100012700505106841054M291710    0330000010214709        BPAWASHINGTON DA CRUZ SANTOS     1988032203    010                                45712000081SILVIO BENICIO                          208  RIO DO MEIO                                                                      
032445204202105  980016283818122512520210515003660301100012700607482965660M291710    0710000010214734        BPAJOSE GREGORIO SOUZA           1950052003    010                                45710000081T                                       112  LOT. SINVAL PALMEIRA                                                             
032445204202105  980016283818122512520210515003670301100012701809280111375M291710    0380000010214711        BPAARNALDO MACEDO DOS SANTOS FILH1982103003    010                                45710000081FLORISVALDO BRITO                       297  CENTRO                                                                           
032445204202105  980016283818122512520210515003680301100012801440401947055F291710    0640000010214694        BPACREUSA ROSA SAMPAIO           1956082399    010                                45712000081MANOEL NOVAIS                           554  RIO DO MEIO                                                                      
032445204202105  980016283818122512520210515003690301100012705400486243291M291710    0420000010214710        BPALAELSON DOS SANTOS TELES      1978112599    010                                45710000081Q                                       SN   SINVAL PALMEIRA                                                                  
032445204202105  980016283818122512520210515003700301100012898003257076373M291710    0120000010214733        BPARAMON SILVA DE JESUS          2009013199    010                                4571200008101 DE MAIO                              SN   RIO DO MEIO                                                                      
032445204202105  980016283818122512520210515003710301100012898003257076373M291710    0120000010214733        BPARAMON SILVA DE JESUS          2009013199    010                                4571200008101 DE MAIO                              SN   RIO DO MEIO                                                                      
032445204202105  980016283818122512520210515003720301010048705408427375796F291710    0590000010214690        BPAMARIA DE FATIMA GOMES DOS SANT1961061603    010                                45714000081RUY BARBOSA                             113  ITATI                         NAOTEM                                             
032445204202105  980016283818122512520210515003730301010072705408427375796F291710    0590000010214690        BPAMARIA DE FATIMA GOMES DOS SANT1961061603    010                                45714000081RUY BARBOSA                             113  ITATI                         NAOTEM                                             
032445204202105  980016283818122512520210515003740301060061702307140620510M291710    0690000010214672        BPAIVALTO DOS SANTOS COSTA       1952032003    010                                45712000081DOIS DE JULHO                           SN   RIO DO MEIO                   7398136231                                         
032445204202105  980016283818122512520210515003750301100012705408427375796F291710    0590000010214690        BPAMARIA DE FATIMA GOMES DOS SANT1961061603    010                                45714000081RUY BARBOSA                             113  ITATI                         NAOTEM                                             
032445204202105  980016283818122512520210515003760301010048704206223114481M291710    0300000010214692        BPAMARCELO JOSE SILVA SANTOS     1991030302    010                                45710000081RUI BARBOSA                             160  COLONIA                                                                          
032445204202105  980016283818122512520210515003770301010048705004644013655F291710    0270000010214689        BPAJULIANA FERREIRA DE SOUSA     1993070803    010                                45710000081FLORISVALDO BRITO                       50   CENTRO                                                                           
032445204202105  980016283818122512520210515003780301010048708905741589717F291710    0670000010214679        BPAMARIA DA GLORIA SANTOS        1953080503    010                                45710000081RUI BARBOSA                             1257 CENTRO                                                                           
032445204202105  980016283818122512520210515003790301010048701800219249577F291710    0610000010214656        BPAMARIA CASSIA ANDRADE SOUZA RIB1960040903    010                                45712000081SILVIO BENICIO                          136  RIO DO MEIO                                                                      
032445204202105  980016283818122512520210515003800301010048705409483387991F291710    0550000010214649        BPASIRLENE OLIVEIRA DOS SANTOS LO1965080903    010                                45710000081ROBSON ROSA                             59   SINVAL PALMEIRA                                                                  
032445204202105  980016283818122512520210515003810301010048706905114918937F291710    0230000010214688        BPAAYLA AYLME FERREIRA DE CARVALH1998050403    010                                45710000081AV. RIO COLONIA                         SN   LOTT                                                                             
032445204202105  980016283818122512520210515003820301010048700403457191647M291640    0830000010214691        BPAELIZIARIO FEITOZA             1938043003    010                                45705000081PCA. DUQUE DE CAXIAS                    102  BANDEIRA DO COLÔNIA                                                              
032445204202105  980016283818122512520210515003830301010072706905114918937F291710    0230000010214688        BPAAYLA AYLME FERREIRA DE CARVALH1998050403    010                                45710000081AV. RIO COLONIA                         SN   LOTT                                                                             
032445204202105  980016283818122512520210515003840301010072700403457191647M291640    0830000010214691        BPAELIZIARIO FEITOZA             1938043003    010                                45705000081PCA. DUQUE DE CAXIAS                    102  BANDEIRA DO COLÔNIA                                                              
032445204202105  980016283818122512520210515003850301010048702005831569986F291710    0630000010214671        BPAMARIA DAS NEVES BATISTA       1957110299    010                                45710000081SANTOS DUMONT                           153  CENTRO                                                                           
032445204202105  980016283818122512520210515003860301010072704206223114481M291710    0300000010214692        BPAMARCELO JOSE SILVA SANTOS     1991030302    010                                45710000081RUI BARBOSA                             160  COLONIA                                                                          
032445204202105  980016283818122512520210515003870301010072705004644013655F291710    0270000010214689        BPAJULIANA FERREIRA DE SOUSA     1993070803    010                                45710000081FLORISVALDO BRITO                       50   CENTRO                                                                           
032445204202105  980016283818122512520210515003880301010072708905741589717F291710    0670000010214679        BPAMARIA DA GLORIA SANTOS        1953080503    010                                45710000081RUI BARBOSA                             1257 CENTRO                                                                           
032445204202105  980016283818122512520210515003890301010072701800219249577F291710    0610000010214656        BPAMARIA CASSIA ANDRADE SOUZA RIB1960040903    010                                45712000081SILVIO BENICIO                          136  RIO DO MEIO                                                                      
032445204202105  980016283818122512520210515003900301010072705409483387991F291710    0550000010214649        BPASIRLENE OLIVEIRA DOS SANTOS LO1965080903    010                                45710000081ROBSON ROSA                             59   SINVAL PALMEIRA                                                                  
032445204202105  980016283818122512520210515003910301100012705004644013655F291710    0270000010214689        BPAJULIANA FERREIRA DE SOUSA     1993070803    010                                45710000081FLORISVALDO BRITO                       50   CENTRO                                                                           
032445204202105  980016283818122512520210515003920301100012708905741589717F291710    0670000010214679        BPAMARIA DA GLORIA SANTOS        1953080503    010                                45710000081RUI BARBOSA                             1257 CENTRO                                                                           
032445204202105  980016283818122512520210515003930301100012701800219249577F291710    0610000010214656        BPAMARIA CASSIA ANDRADE SOUZA RIB1960040903    010                                45712000081SILVIO BENICIO                          136  RIO DO MEIO                                                                      
032445204202105  980016283818122512520210515003940301100012705409483387991F291710    0550000010214649        BPASIRLENE OLIVEIRA DOS SANTOS LO1965080903    010                                45710000081ROBSON ROSA                             59   SINVAL PALMEIRA                                                                  
032445204202105  980016283818122512520210515003950301010048708600511531588F291710    0790000010214650        BPAANTONIO JOSE DA SILVA         1941100603    010                                45710000081FAZ. LINDA FLOR (RIO DO MEIO)           SN   ZONA RURAL                                                                       
032445204202105  980016283818122512520210515003960301010048209145596930003F291710    0980000010214651        BPAALCINA CECILIA DA SILVA       1922112299    010                                45710000081                                        SN                                                                                    
032445204202105  980016283818122512520210515003970301010048209145596930003F291710    0980000010214651        BPAALCINA CECILIA DA SILVA       1922112299    010                                45710000081                                        SN                                                                                    
032445204202105  980016283818122512520210516003980301010048708709110609591F291640    0290000010214767        BPAEDILENE DOS SANTOS FREITAS    1992031003    010                                45705000081AV. DR.ROBERTO SANTOS                   190  BANDEIRA DO COLÔNIA           7399908493                                         
032445204202105  980016283818122512520210516003990301010048700508330035352M291710    0630000010214769        BPAELENIDIO DE JESUS             1957090303    010                                45710000081JOSE DO PATROCINIO                      95   CENTRO                        7382265618                                         
032445204202105  980016283818122512520210516004010301010048708104596903939M291710    0020000010214757        BPAFELIPE DA SILVA CRUZ          2019050403    010                                45710000081MARECHAL FLORIANO PEIXOTO               796  APARECIDA                     7399976336                                         
032445204202105  980016283818122512520210516004020301010048705009694796852M291640    0000000010214778        BPALORENZO GABRIEL DA SILVA SANTO2020081103    010                                45705000081RUI BARBOSA                             40   BANDEIRA DO COLÔNIA           7399286664                                         
032445204202105  980016283818122512520210516004030301060029708709110609591F291640    0290000010214767        BPAEDILENE DOS SANTOS FREITAS    1992031003    010                                45705000081AV. DR.ROBERTO SANTOS                   190  BANDEIRA DO COLÔNIA           7399908493                                         
032445204202105  980016283818122512520210516004040301060029700508330035352M291710    0630000010214769        BPAELENIDIO DE JESUS             1957090303    010                                45710000081JOSE DO PATROCINIO                      95   CENTRO                        7382265618                                         
032445204202105  980016283818122512520210516004050301060029708104596903939M291710    0020000010214757        BPAFELIPE DA SILVA CRUZ          2019050403    010                                45710000081MARECHAL FLORIANO PEIXOTO               796  APARECIDA                     7399976336                                         
032445204202105  980016283818122512520210516004060301060061705009694796852M291640    0000000010214778        BPALORENZO GABRIEL DA SILVA SANTO2020081103    010                                45705000081RUI BARBOSA                             40   BANDEIRA DO COLÔNIA           7399286664                                         
